:03000000020535C1
:10000300C0E0C0D0C000C001C002E4F53AF53BF542
:100013003CF53DF53E7A20E535A2E779047832E6F2
:1000230033F608D9FA7905783AE636D4F608D9F9D9
:10003300DAE5D002D001D000D0D0D0E022C0E0C0B9
:10004300D0C000C001C002E4F53AF53BF53CF53DF4
:10005300F53E7A20E535A2E779047832E633F608EF
:10006300D9FA7905783AC0D0E6243320E70224D0C0
:1000730020E30224FDD0D033F608D9EADAD6D00241
:10008300D001D000D0D0D0E022C0E0C0D0C000C0AA
:1000930001C0027A207905C3783EE613C0D030E769
:1000A3000224D030E30224FDF618D0D0D9EC790431
:1000B3007835E613F618D9FADADBD002D001D0008E
:1000C300D0D0D0E022C0E0C0D0E5322536F532E50D
:1000D300333537F533E5343538F534E5353539F52A
:1000E30035D0D0D0E022C0E0C0D0C3E5329536F59C
:1000F30032E5339537F533E5349538F534E5359501
:1001030039F535D0D0D0E022C0E0C0D0C3E5329578
:1001130036E5339537E5349538E53595399200D092
:10012300D0D0E022C0E0C0D0C3E5369532E53795A4
:1001330033E5389534E53995359200D0D0D0E022B7
:10014300C0E0C0D0C200C3E53695327014E53795E0
:1001530033700EE53895347008E53995357002D261
:1001630000D0D0D0E0221201432000030201272255
:1001730012014320000302010B22C0E0C0F0C0D0F3
:10018300C000C001C002C003E5328536F0A4F8A95F
:10019300F0E5338536F0A429F9E435F0FAE5328544
:1001A30037F0A429F9E5F03AFAE433FBE534853670
:1001B300F0A42AFAE5F03BFBE5338537F0A42AFAED
:1001C300E5F03BFBE5328538F0A42AFAE5F03BFB8A
:1001D300E5358536F0A42BFBE5348537F0A42BFBFE
:1001E300E5338538F0A42BFBE5328539F0A42BFBEE
:1001F3008B358A3489338832D003D002D001D000C2
:10020300D0D0D0F0D0E022C0E0C0D0C000C001C048
:1002130002C003C0047C20E4F8F9FAFBC3E53233DF
:10022300F532E53333F533E53433F534E53533F57A
:1002330035E833F8E933F9EA33FAEB33FBC3E895EE
:1002430036E99537EA9538EB95394013E89536F852
:10025300E99537F9EA9538FAEB9539FB433201DC36
:10026300BBD004D003D002D001D000D0D0D0E02244
:10027300C00078B10000D8FCD00022C000C00179D2
:100283002D78A6D8FED9FADAF6D001D00022D2B35F
:10029300120273C2B322A2E792B7A2E692B6A2E514
:1002A30092B5A2E492B4120291120273A2E392B73E
:1002B300A2E292B6A2E192B5A2E092B41202912216
:1002C300D2B2020299C2B2020299C2B374331202C9
:1002D300C874331202C874321202C874281202C8D6
:1002E300740C1202C874011202C8C0027A0212020C
:1002F3007ED00222E49360061202C3A380F6224456
:100303004044800202C8C0E0E8C4540F44301202E3
:0C031300C3E8540F44301202C3D0E022B3
:10031F00D2A2C2A32279007A08E833F892A1D2A31D
:10032F00A2A2E933F9C2A3DAF02279DE78A6D8FEC9
:10033F00D9FA438780759852759B00759AF4759B0F
:10034F001E223099FDC299F59922E493600612039B
:10035F0051A380F622C0E0740714120302D0E0C04C
:10036F0000A83E120309D000C000A83D120309D017
:10037F0000C000A83C120309D000C000A83B120324
:10038F0009D000C000A83A120309D000C0E07407DA
:10039F0014120302D0E0E53E54F0C4600302044996
:1003AF00C0E074201202C3D0E0E53E540F60030298
:1003BF000449C0E074201202C3D0E0E53D54F0C4FC
:1003CF006003020449C0E074201202C3D0E0E53D8F
:1003DF00540F6003020449C0E074201202C3D0E03E
:1003EF00E53C54F0C46003020449C0E074201202DB
:1003FF00C3D0E0E53C540F6003020449C0E0742011
:10040F001202C3D0E0E53B54F0C46003020449C0BC
:10041F00E074201202C3D0E0E53B540F60030204E6
:10042F0049C0E074201202C3D0E0E53A54F0C47022
:10043F0009C0E074201202C3D0E022C0E074071498
:10044F00120302D0E0C0E074201202C3D0E0C0005B
:10045F00A83D120309D000C000A83C120309D00028
:10046F00C0E0742E1202C3D0E0C000A83B120309F3
:10047F00D000C000A83A120309D0002220C5FDC049
:10048F00027A3212027ED00220C5F130C5FD22431E
:10049F00757272656E742054656D703A0075817F48
:1004AF0075E60075E7001202CDC0E0740114120367
:1004BF0004D0E0C083C082C0E090049E1202F7D047
:1004CF00E0D082D083C0E0E8C4540F44301203510F
:1004DF00E8540F4430120351D0E022853032853179
:1004EF003375340075350075369A753701753800D8
:1004FF0075390012017D7536FF7537037538007534
:10050F00390012020A7536117537017538007539C1
:10051F00001200E98000120003C000A83A1204D4B0
:10052F00D0001203642275817F75E60075E7001213
:10053F0002CDC0E0740114120304D0E0C083C08266
:10054F00C0E090049E1202F7D0E0D082D083120355
:10055F0039120359C2A078011203247880120324A0
:10056F00E95403F53178551203248930D2A0C00223
:10057F007AFA12027ED0021204EA740D1203517439
:06058F000A12035180CEA8
:00000001FF
